:10000000000000308A009D28A101A117AD00FE303C
:1000100058202D085828AB00881108118316881124
:1000200008110F30880583122B08A01835283E30A0
:10003000A700803085203330AA0049201330A70064
:100040008830852049206430842049206430842011
:100050002230AA004920283034200C3034200630C9
:100060003420A0142B0835282014AA00201C432873
:100070000811033C031C482848200730A700D03053
:100080008520031408002014FE3C03195628081587
:10009000201C201088150F3088052A08F0398804A4
:1000A0008811AA0E20184928323084202B0899285C
:1000B000A11B0B280800A400A201240803178D002F
:1000C0000313250803178F006E2003199928582061
:1000D000A40A0319A50AA20F5D28992883160317FD
:1000E0008C170C140000000083120C089928A90139
:1000F000A800FF30A807031CA907031C9928033098
:10010000A700E43085207928A701F63EA600A709BC
:10011000031C9028FE300000A60703188B28A607B2
:100120000000A70F8A28000026189628261898286D
:10013000080083138312031308008301A001073012
:1001400083169F0086018801890183128030A100F7
:100150008A0104200030A500C9308A015B2080306C
:10016000A100C0308A0104200030A500D5308A01EA
:100170005B200330A900E8308A01782080308606B1
:100180008316861383128A01A5288A01C5288A014D
:10019000C728540065007300740020006C006900DB
:1001A0006E006500200031000000540065007300FF
:1001B000740020006C0069006E00650020003200B1
:0201C00000003D
:02400E00323F3F
:00000001FF
