:10000000000000308A00E328FF0003088301FE009F
:100010000408FC000A08FD0001308A00102983133F
:10002000B800B901B90D003039027C30031938022B
:10003000031C2028B51B20282430B8070318B90A50
:1000400000303902F03003193802031C2C288317C2
:100050002030B8070318B90A01303902703003198B
:100060003802031C35282030B807380884000800FF
:100070008030A100FE309620013096207530AF0010
:100080003030C328A101A117B700FE3096203708F1
:100090009628B500881108118316881108110F30B1
:1000A000880583123508A01873283E30AF008030D1
:1000B000C3203330B40087201330AF008830C32012
:1000C00087206430C22087206430C2202230B400F0
:1000D0008720283072200C30722006307220A01445
:1000E000350873282014B400201C81280811033C13
:1000F000031C862886200730AF00D030C3200314AD
:1001000008002014FE3C031994280815201C201018
:1001100088150F3088053408F03988048811B40E2A
:10012000201887283230C2203508D728A11B49283B
:100130000800A500A201250803178D000313260857
:1001400003178F00AC200319D7289620A50A03199E
:10015000A60AA20F9B28D728831603178C170C1406
:100160000000000083120C08D728B101B000FF3056
:10017000B007031CB107031CD7280330AF00E430DD
:10018000C320B728AF01F63EAE00AF09031CCE284E
:10019000FE300000AE070318C928AE070000AF0FFD
:1001A000C82800002E18D4282E18D628080083133B
:1001B000831203130800B4002508B50026070F209A
:1001C00034088000D7288301A001073083169F00E0
:1001D0008801FF30860001178312C3018316D20104
:1001E00083125130831652028A110A1283120318A5
:1001F0000A29831652088312A6005430A50008303D
:100200008A01DB2001308316D2078A110A12831279
:10021000031CF028BF01BE01C0018A110A12642923
:10022000E8308400831325088000840A26088000B3
:10023000840A34088000840A35088000840A38085B
:100240008000840A390880008B138A110A128B1CE3
:1002500045298A110A12861C3A294008A600543002
:10026000A5000030861901308A01DB20C00A8A11FE
:100270000A124429293040028A110A12031C41291A
:10028000C001BE0A0319BF0A8B108B17E830840027
:1002900083130008A500840A0008A600840A000849
:1002A000B400840A0008B500840A0008B800840A73
:1002B0000008B9007D088A007C0884007E0883005D
:1002C000FF0E7F0E090008008A0138208030A1004F
:1002D0008A0142200730A600F8308A019920803038
:1002E000A100C0308A0142200830A60009308A01EE
:1002F00099208030A100D4308A0142200830A60025
:100300001D308A0199200330B100E8308A01B620FF
:100310008A0138200B168B178316DB0183122A30D3
:100320008316E40083128A110A1220270A308A01F8
:10033000B52071308316E40083128A110A12202737
:100340000A308A01B5205C308316E40083128A11DA
:100350000A1220270A308A01B52028308316E400CB
:1003600083128A110A1220270A308A01B520083028
:100370008316E40083128A110A1220270A308A01A8
:10038000B5202A308316E40083128A110A1220272E
:100390000A308A01B52079308316E40083128A116D
:1003A0000A1220270A308A01B520D5308316E400CE
:1003B00083128A110A1220270A308A01B520703070
:1003C0008316E40083128A110A1220270A308A0158
:1003D000B52078308316E40083128A110A12202790
:1003E0000A308A01B52008308316E40083128A118E
:1003F0000A1220270A308A01B52006308316E4004D
:1004000083128A110A1220270A308A01B5202A3065
:100410008316E40083128A110A1220270A308A0107
:10042000B52079308316E40083128A110A1220273E
:100430000A308A01B52072308316E40083128A11D3
:100440000A1220270A308A01B5208316E40183129C
:100450008A110A1220270A308A01B520DA30831661
:10046000E40083128A110A1220270A308A01B5207B
:1004700010308316E40083128A110A1220270A30F2
:100480008A01B52081308316E40083128A110A1292
:1004900020270A308A01B520FF308316E40083123A
:1004A0008A110A1220270A308A01B520DB30831610
:1004B000E40083128A110A1220270A308A01B5202B
:1004C00030308316E40083128A110A1220270A3082
:1004D0008A01B520DC308316E40083128A110A12E7
:1004E00020270A308A01B52003308316E4008312E6
:1004F0008A110A1220270A308A01B5207830831623
:10050000E40083128A110A1220270A308A01B520DA
:1005100028308316E40083128A110A1220270A3039
:100520008A01B5202A308316E40083128A110A1248
:1005300020270A308A01B52006308316E400831292
:100540008A110A1220270A308A01B5200830831642
:10055000E40083128A110A1220270A308A01B5208A
:1005600028308316E40083128A110A1220270A30E9
:100570008A01B52001308316E40083128A110A1221
:1005800020270A308A01B52080308316E4008312C8
:100590008A110A12202764308A01B5200C30831694
:1005A000E40083128A110A1220277708A70027087F
:1005B0008316D30083127308A70027088316D4007C
:1005C00083125508A70027088316D5008312570801
:1005D000A70027088316D60083127808A7002708EB
:1005E0008316D70083125608A70027088316D80061
:1005F00039088312A70027088316D90083128A11AD
:100600000A12E72583165B08DD0083125808A7004D
:1006100027088316D30083127A08A70027088316B9
:10062000D40083126908A70027088316D5002F0875
:100630008312A70027088316D60030088312A7006C
:1006400027088316D70083127908A7002708831686
:10065000D80083126A08A70027088316D9008312DE
:100660008A110A12E72583165B08DE0083125908F7
:10067000A70027088316D30083127008A700270855
:100680008316D40083127108A70027088316D500AB
:1006900037088312A70027088316D600380883126C
:1006A000A70027088316D70083127208A70027081F
:1006B0008316D80036088312A70027088316D900AE
:1006C00083128A110A12E72583165B08DF00831262
:1006D0005A08A70027088316D30020088312A70012
:1006E00027088316D40083126E08A70027088316F4
:1006F000D50034088312A70027088316D6003508D2
:100700008312A70027088316D70083127B08A7004F
:1007100027088316D80083126F08A70027088316BE
:10072000D90083128A110A12E72583165B08E000BC
:1007300083125B08A70027088316D30083126B0877
:10074000A70027088316D40083126C08A700270887
:100750008316D50032088312A70027088316D60017
:1007600033088312A70027088316D70083126D0869
:10077000A70027088316D80031088312A70027088E
:100780008316D90083128A110A12E72583165B08A3
:10079000E10083125C08A70027088316D300220813
:1007A0008312A70027088316D40083126708A700C6
:1007B00027088316D5002D088312A7002708831663
:1007C000D6002E088312A70027088316D700210819
:1007D0008312A70027088316D80083126808A70091
:1007E00027088316D90083128A110A12E725831677
:1007F0005B08E20083126308A70027088316D30072
:1008000029088312A70027088316D4002A08831218
:10081000A70027088316D50023088312A7002708FE
:100820008316D60028088312A70027088316D7004E
:1008300083126208A70027088316D8008312640871
:10084000A70027088316D90083128A110A12E72508
:1008500083165B08E30080308312A1008A014220E6
:100860000830A6002F308A01992083165D08831274
:100870008A01492083165E0883128A0149202E309E
:100880008A01492083165F0883128A014920831652
:10089000600883128A0149208316610883128A0145
:1008A00049208316620883128A0149205F08A70045
:1008B000013027028A110A12031D6C2C8030A1001E
:1008C00091308A0142203C308A0149203E308A0121
:1008D00049208A110A12782C8030A10091308A01B7
:1008E000422020308A0149208A0149208A0149207A
:1008F0005E08A700013027028A110A12031D8D2C01
:100900008030A100C0308A0142200830A6003A3071
:100910008A0199208A110A12972C8030A100C030D8
:100920008A0142200830A60045308A0199206008DB
:10093000A700013027028A110A12031DAC2C803057
:10094000A10094308A0142200830A60050308A016C
:1009500099208A110A12B62C8030A10094308A01A5
:1009600042200830A6005B308A01992083162508B2
:100970008312A700013027028A110A12031DD72C07
:100980008030A1009E308A01422028308A0149200F
:1009900043308A01492057308A01492029308A0191
:1009A000492020308A0149208A110A12E72C803020
:1009B000A1009E308A01422020308A0149208A010C
:1009C00049208A0149208A0149208A014920803032
:1009D000A100D4308A0142200830A60066308A0186
:1009E00099208316630883128A0149206108A700B1
:1009F000013027028A110A12031D0C2D8030A1003C
:100A0000DE308A01422054308A01492058308A0160
:100A100049208A110A12162D8030A100DE308A0189
:100A2000422020308A0149208A0149208316270864
:100A30008312A700013027028A110A12031D2E2DEE
:100A40008030A100E1308A01422052308A014920E1
:100A500058308A0149208A110A12382D8030A100AD
:100A6000E1308A01422020308A0149208A01492050
:100A700083162C088312A700013027028A110A125C
:100A8000031D4D2D8030A100A3308A014220583033
:100A90008A0149208A110A12552D8030A100A33005
:100AA0008A01422020308A01492083162B088312B4
:100AB000A700013027028A110A12031D6A2D803017
:100AC000A100A4308A01422058308A0149208A11AD
:100AD0000A12722D8030A100A4308A0142202030F9
:100AE0008A0149206508A700013027028A110A12ED
:100AF000031D852D8030A100A5308A014220583089
:100B00008A0149208A110A128D2D8030A100A5305A
:100B10008A01422020308A0149206608A70001305E
:100B200027028A110A12031DA02D8030A100A630D1
:100B30008A01422058308A0149208A110A12A82DC0
:100B40008030A100A6308A01422020308A0149204D
:100B500080308316E40083128A110A122027303075
:100B6000C4003130C5003230C6003330C7003430E5
:100B7000C8003530C9003630CA003730CB003830B5
:100B8000CC003930CD003130CE003230CF003330A0
:100B9000D0003430D1003530D2003630D3008A1145
:100BA0000A12D1270A308A01B520C0308316E4002A
:100BB00083128A110A1220270A308A01B5208A116D
:100BC0000A12D1270A308A01B5208A01D52A831654
:100BD00053088312A700BB012708BA0083165408E4
:100BE0008312A800BD012808BC000310BC0DBD0D78
:100BF0003C08BA073D080318013EBB078316550899
:100C00008312A900BD012908BC00BC0DBD0DBC0D9F
:100C1000BD0DFC30BC053C08BA073D080318013E79
:100C2000BB07831656088312AA00BD012A08BC0020
:100C30000330AE000310BC0DBD0DAE038A110A12C5
:100C4000031D1A2E3C08BA073D080318013EBB07D6
:100C5000831657088312AB00BD012B08BC0004307B
:100C6000AE000310BC0DBD0DAE038A110A12031DA8
:100C7000312E3C08BA073D080318013EBB07831616
:100C800058088312AC00BD012C08BC000530AE0032
:100C90000310BC0DBD0DAE038A110A12031D482EB0
:100CA0003C08BA073D080318013EBB0783165908E4
:100CB0008312AD00BD012D08BC000630AE0003104C
:100CC000BC0DBD0DAE038A110A12031D5F2E3A083A
:100CD0003C078316DA002D30DB00DA088A110A128D
:100CE0008312031D762E20308316DB0083123F30E3
:100CF00083165A028A110A128312031D822E303083
:100D00008316DB008312063083165A028A110A12F8
:100D10008312031D8E2E31308316DB0083125B306D
:100D200083165A028A110A128312031D9A2E323038
:100D30008316DB0083124F3083165A028A110A127F
:100D40008312031DA62E33308316DB008312663018
:100D500083165A028A110A128312031DB22E3430EE
:100D60008316DB0083126D3083165A028A110A1231
:100D70008312031DBE2E35308316DB0083127D30B7
:100D800083165A028A110A128312031DCA2E3630A4
:100D90008316DB008312073083165A028A110A1267
:100DA0008312031DD62E37308316DB0083127F306B
:100DB00083165A028A110A128312031DE22E38305A
:100DC0008316DB0083126F3083165A028A110A12CF
:100DD0008312031DEE2E39308316DB008312783028
:100DE00083165A028A110A128312031DFA2E5530F5
:100DF0008316DB0083121C3083165A028A110A12F2
:100E00008312031D062F55308316DB0083125430E6
:100E100083165A028A110A128312031D122F6E3092
:100E20008316DB008312583083165A028A110A1285
:100E30008312031D1E2F65308316DB00831208000A
:100E400083160712831207120830AE008A110A12A5
:100E5000AE0B282F83168711831287110830AE003E
:100E60008A110A12AE0B322F78308316E6008312F5
:100E70008A110A12882780308316E60083128A11AD
:100E80000A12882783166408E60083128A110A1260
:100E900088278316871183128715000000008316A8
:100EA000071283120716080083160712831207120F
:100EB0000830AE008A110A12AE0B5C2F8316871120
:100EC000831287110830AE008A110A12AE0B662F0A
:100ED00078308316E60083128A110A128827403080
:100EE0008316E60083128A110A1288278316650882
:100EF000E60083128A110A1288278316871183124B
:100F000087150000000083160712831207160800D9
:100F100001308316E70083120930831667028A11B5
:100F20000A1283120318C02F8A110A128316660D43
:100F300083120318A22F83160712831207128A1135
:100F40000A12A62F831607128312071603108316A0
:100F5000E60D000000008711831287150730AE00F0
:100F60008A110A12AE0BB22F8316871183128711D2
:100F700001308316E7078A110A128312031C8B2F94
:100F80000000000083168711831287150730AE001A
:100F90008A110A12AE0BCA2F83168711831287118A
:100FA00008008316D20183121030831652028A1170
:100FB0000A1283120318F32F83165208443E84004A
:100FC0000008E50083128A0154270830AE008A1118
:100FD0000A12AE0BE92F01308316D2078A110A12CA
:100FE0008312031CD32F08008A01F42F8A01F62FE5
:100FF000200020002000200052004100430041005A
:101000004C002000420043004300330039004200FE
:101010000000200028004300290032003000310089
:1010200035002000540041003700570020004200E6
:10103000610072006900730000002000200044007D
:101040004900530050004C0041005900200054005A
:1010500045005300540049004E0047000000460080
:10106000720065006B0061006E00730020003A00A2
:101070002000000050005700520020003A002000DD
:101080004800490047004800000050005700520047
:1010900020003A0020004C004F00570020000000C4
:1010A0004D004F00440020003A002000550053003E
:1010B0004200200000004D004F00440020003A0094
:1010C00020004C0053004200200000004B00610053
:0E10D0006E0061006C0020003A00200000005D
:02400E007A3DF9
:00000001FF
