:10000000000000308A00E428FF0003088301FE009E
:100010000408FC000A08FD0001308A000B2980302A
:10002000A100FE309F2001309F207530A6003030A7
:10003000B028A101A117AE00FE309F202E089F28F6
:10004000A401A900AA01A01124080319A0150530D4
:10005000A3002730A800103039200330A800E83072
:100060003920A80164303920A8010A303920290834
:100070004028A7002A08A6002908A500C4202508B2
:10008000A500A3030319A011240803194A28230279
:10009000031851282508031DA011A0195128303E2E
:1000A0009F280800AC0088110811831688110811D8
:1000B0000F30880583122C08A0187C283E30A6003B
:1000C0008030B0203330AB0090201330A600883051
:1000D000B02090206430AF2090206430AF202230D8
:1000E000AB00902028307B200C307B2006307B201A
:1000F000A0142C087C282014AB00201C8A2808118E
:10010000033C031C8F288F200730A600D030B0207E
:10011000031408002014FE3C03199D280815201C18
:10012000201088150F3088052B08F03988048811B5
:10013000AB0E201890283230AF202C08E028A11BED
:1001400052280800A801A700FF30A707031CA80732
:10015000031CE0280330A600E430B020A428A60148
:10016000F63EA500A609031CBB28FE300000A5072B
:100170000318B628A5070000A60FB528000025180B
:10018000C1282518C3280800AA01A9011030AB0016
:10019000260DA90DAA0D2708A9022808031C280F5F
:1001A000AA020318DA282708A90728080318280F25
:1001B000AA070310A50DA60DAB0BC828250808003B
:1001C00083138312031308008301A00107308316F1
:1001D0009F008801FF3086000C100B1781018312ED
:1001E00090101015101290128F0078308E00BB0105
:1001F000BA01BD01BC01E301E201E701E601E5014D
:10020000E401E901E801EB01EA01ED01EC016E1006
:100210008A110A1263292F08F0008B138A110A121F
:100220000B1C1829BA0A0319BB0A0608EF000B10A9
:1002300000300C180130AF00003083160C1801306C
:100240008312AF058A110A120319562983160C105E
:10025000FF3083128F0078308E0083160C148312C7
:100260000C10B60A0319B70A0130BE070318BF07FE
:100270000318C00701300318C107033037028A1181
:100280000A12031C56298A110A12031D4D29E8304F
:1002900036028A110A12031C5629E830B6020330CE
:1002A000031C013EB702B80A0319B90A8B1770087C
:1002B000AF007D088A007C0884007E088300FF0E62
:1002C0007F0E090008008A010F208B158B179030D4
:1002D0008B00EB01EA018A010F208030A1008A0126
:1002E000192044308A0152203A308A0152204308B2
:1002F0008A01202044088A01202045088A01202004
:1003000046088A01202047088A01202048088A01DF
:10031000202049088A0120208030A100C0308A01B5
:100320001920A4016308AA006208A9008A012320F9
:100330008030A10094308A011920A4013908AA0054
:100340003808A9008A0123208030A100D4308A0116
:100350001920A4013D08AA003C08A9008A01232015
:1003600020308A0152208A015220A4013B08AA00B1
:100370003A08A9008A0123200A308A01A2208A01B2
:0A03800069298A01C1298A01C329F5
:02400E007A3DF9
:00000001FF
