:10000000000000308A00E328FF0003088301FE009F
:100010000408FC000A08FD0001308A00102983133F
:10002000B700B801B80D003038027C300319370230
:10003000031C2028B41B20282430B7070318B80A53
:1000400000303802F03003193702031C2C288317C4
:100050002030B7070318B80A01303802703003198E
:100060003702031C35282030B70737088400080002
:100070008030A100FE309620013096207530AE0011
:100080003030C328A101A117B600FE3096203608F3
:100090009628B400881108118316881108110F30B2
:1000A000880583123408A01873283E30AE008030D3
:1000B000C3203330B30087201330AE008830C32014
:1000C00087206430C22087206430C2202230B300F1
:1000D0008720283072200C30722006307220A01445
:1000E000340873282014B300201C81280811033C15
:1000F000031C862886200730AE00D030C3200314AE
:1001000008002014FE3C031994280815201C201018
:1001100088150F3088053308F03988048811B30E2C
:10012000201887283230C2203408D728A11B49283C
:100130000800A400A201240803178D00031325085A
:1001400003178F00AC200319D7289620A40A03199F
:10015000A50AA20F9B28D728831603178C170C1407
:100160000000000083120C08D728B001AF00FF3058
:10017000AF07031CB007031CD7280330AE00E430E0
:10018000C320B728AE01F63EAD00AE09031CCE2851
:10019000FE300000AD070318C928AD070000AE0F00
:1001A000C82800002D18D4282D18D628080083133D
:1001B000831203130800B3002408B40025070F209E
:1001C00033088000D7288301A001073083169F00E1
:1001D0008801FF30860001178312C2018316C10116
:1001E00083125130831641028A110A1283120318B6
:1001F0000A29831641088312A5004330A400083061
:100200008A01DB2001308316C1078A110A1283128A
:10021000031CF028BE01BD01BF018A110A12642926
:10022000D7308400831324088000840A25088000C6
:10023000840A33088000840A34088000840A37085E
:100240008000840A380880008B138A110A128B1CE4
:1002500045298A110A12861C3A293F08A500433015
:10026000A4000030861901308A01DB20BF0A8A1100
:100270000A12442929303F028A110A12031C41291B
:10028000BF01BD0A0319BE0A8B108B17D73084003B
:1002900083130008A400840A0008A500840A00084B
:1002A000B300840A0008B400840A0008B700840A76
:1002B0000008B8007D088A007C0884007E0883005E
:1002C000FF0E7F0E090008008A0138208030A1004F
:1002D0008A0142200730A500FE308A019920803033
:1002E000A100C0308A0142200830A5000F308A01E9
:1002F00099208030A100D4308A0142200830A50026
:1003000023308A0199200330B000E8308A01B620FA
:100310008A0138200B168B178316CA0183122A30E4
:100320008316D30083128A110A1249270A308A01E0
:10033000B52071308316D30083128A110A1249271F
:100340000A308A01B5205C308316D30083128A11EB
:100350000A1249270A308A01B52028308316D300B3
:1003600083128A110A1249270A308A01B5200830FF
:100370008316D30083128A110A1249270A308A0190
:10038000B5202A308316D30083128A110A12492716
:100390000A308A01B52079308316D30083128A117E
:1003A0000A1249270A308A01B520D5308316D300B6
:1003B00083128A110A1249270A308A01B520703047
:1003C0008316D30083128A110A1249270A308A0140
:1003D000B52078308316D30083128A110A12492778
:1003E0000A308A01B52008308316D30083128A119F
:1003F0000A1249270A308A01B52006308316D30035
:1004000083128A110A1249270A308A01B5202A303C
:100410008316D30083128A110A1249270A308A01EF
:10042000B52079308316D30083128A110A12492726
:100430000A308A01B52072308316D30083128A11E4
:100440000A1249270A308A01B5208316D301831284
:100450008A110A1249270A308A01B520DA30831638
:10046000D30083128A110A1249270A308A01B52063
:1004700010308316D30083128A110A1249270A30DA
:100480008A01B52081308316D30083128A110A12A3
:1004900049270A308A01B520FF308316D300831222
:1004A0008A110A1249270A308A01B520DB308316E7
:1004B000D30083128A110A1249270A308A01B52013
:1004C00030308316D30083128A110A1249270A306A
:1004D0008A01B520DC308316D30083128A110A12F8
:1004E00049270A308A01B52003308316D3008312CE
:1004F0008A110A1249270A308A01B52078308316FA
:10050000D30083128A110A1249270A308A01B520C2
:1005100028308316D30083128A110A1249270A3021
:100520008A01B5202A308316D30083128A110A1259
:1005300049270A308A01B52006308316D30083127A
:100540008A110A1249270A308A01B5200830831619
:10055000D30083128A110A1249270A308A01B52072
:1005600028308316D30083128A110A1249270A30D1
:100570008A01B52001308316D30083128A110A1232
:1005800049270A308A01B52080308316D3008312B0
:100590008A110A12492764308A01B5200C3083166B
:1005A000D30083128A110A1249270A308A01B52022
:1005B00041308316D40083128A110A127D270A3033
:1005C0008A01B52041308316D40083128A110A12A1
:1005D0007D270A308A01B52041308316D40083126A
:1005E0008A110A127D270A308A01B520413083160C
:1005F000D40083128A110A127D270A308A01B5209D
:1006000041308316D40083128A110A127D270A30E2
:100610008A01B52041308316D40083128A110A1250
:100620007D270A308A01B52041308316D400831219
:100630008A110A127D270A308A01B52041308316BB
:10064000D40083128A110A127D270A308A01B5204C
:1006500041308316D40083128A110A127D27C030DC
:100660008316D30083128A110A1249270A308A019D
:10067000B52041308316D40083128A110A127D27D7
:100680000A308A01B5206608A60026088316C20033
:1006900083126208A60026088316C300831244084A
:1006A000A60026088316C40083124608A600260862
:1006B0008316C50083126708A60026088316C600A5
:1006C00083124508A60026088316C700280883124F
:1006D000A60026088316C80083128A110A12102663
:1006E00083164A08CC0083124708A6002608831602
:1006F000C20083126908A60026088316C30083126D
:100700005808A60026088316C40083127A08A6009B
:1007100026088316C50083127B08A60026088316C8
:10072000C60083126808A60026088316C700831235
:100730005908A60026088316C80083128A110A12D7
:10074000102683164A08CD0083124808A600260802
:100750008316C20083125F08A60026088316C30012
:1007600083126008A60026088316C4002608831298
:10077000A60026088316C50027088312A6002608AF
:100780008316C60083126108A60026088316C700D8
:1007900025088312A60026088316C80083128A1132
:1007A0000A12102683164A08CE0083124908A600B2
:1007B00026088316C20083126B08A600260883163B
:1007C000C30083125D08A60026088316C400230810
:1007D0008312A60026088316C50024088312A600EB
:1007E00026088316C60083126A08A6002608831608
:1007F000C70083125E08A60026088316C80083126D
:100800008A110A12102683164A08CF0083124A085A
:10081000A60026088316C20083125A08A6002608DE
:100820008316C30083125B08A60026088316C40043
:1008300021088312A60026088316C5002208831209
:10084000A60026088316C60083125C08A6002608A8
:100850008316C70020088312A60026088316C80046
:1008600083128A110A12102683164A08D0008312B6
:100870004B08A60026088316C20083126D08A60046
:1008800026088316C30083125608A600260883167E
:10089000C40083127808A60026088316C5008312B8
:1008A0007908A60026088316C60083126C08A600E5
:1008B00026088316C70083125708A6002608831649
:1008C000C80083128A110A12102683164A08D10022
:1008D00083125208A60026088316C20083127408E9
:1008E000A60026088316C30083127508A6002608F2
:1008F0008316C40083126E08A60026088316C5005E
:1009000083127308A60026088316C60083125108B6
:10091000A60026088316C70083125308A6002608DF
:100920008316C80083128A110A12102683164A08F9
:10093000D20080308312A1008A0142200830A50035
:1009400035308A01992083164C0883128A01492088
:1009500083164D0883128A0149202E308A014920CE
:1009600083164E0883128A01492083164F0883128A
:100970008A0149208316500883128A014920831670
:10098000510883128A0149204E08A6000130260230
:100990008A110A12031DDA2C8030A10091308A01DD
:1009A00042203C308A0149203E308A0149208A1188
:1009B0000A12E62C8030A10091308A0142202030BA
:1009C0008A0149208A0149208A0149204D08A60050
:1009D000013026028A110A12031DFB2C8030A1006F
:1009E000C0308A0142200830A50040308A01992099
:1009F0008A110A12052D8030A100C0308A014220E0
:100A00000830A5004B308A0199204F08A60001301C
:100A100026028A110A12031D1A2D8030A10094307B
:100A20008A0142200830A50056308A0199208A1197
:100A30000A12242D8030A10094308A01422008300F
:100A4000A50061308A0199207008A60001302602B5
:100A50008A110A12031D432D8030A1009E308A01A5
:100A6000422028308A01492043308A0149205730EA
:100A70008A01492029308A01492020308A014920F1
:100A80008A110A12532D8030A1009E308A01422023
:100A900020308A0149208A0149208A0149208A019F
:100AA00049208A0149208030A100D4308A014220A7
:100AB0000830A5006C308A019920831652088312F1
:100AC0008A0149205008A600013026028A110A1224
:100AD000031D782D8030A100DE308A014220543081
:100AE0008A01492058308A0149208A110A12822D30
:100AF0008030A100DE308A01422020308A01492066
:100B00008A0149207208A600013026028A110A12C1
:100B1000031D982D8030A100E1308A01422052301F
:100B20008A01492058308A0149208A110A12A22DCF
:100B30008030A100E1308A01422020308A01492022
:100B40008A0149207708A600013026028A110A127C
:100B5000031DB52D8030A100A3308A0142205830FA
:100B60008A0149208A110A12BD2D8030A100A330CC
:100B70008A01422020308A0149207608A6000130EF
:100B800026028A110A12031DD02D8030A100A43044
:100B90008A01422058308A0149208A110A12D82D30
:100BA0008030A100A4308A01422020308A014920EF
:100BB0005408A600013026028A110A12031DEB2DEB
:100BC0008030A100A5308A01422058308A01492096
:100BD0008A110A12F32D8030A100A5308A0142202B
:100BE00020308A0149205508A600013026028A11CA
:100BF0000A12031D062E8030A100A6308A01422071
:100C000058308A0149208A110A120E2E8030A10024
:100C1000A6308A01422020308A0149208A01432BD4
:100C2000831642088312A600BA012608B90083166B
:100C300043088312A700BC012708BB000310BB0DAB
:100C4000BC0D3B08B9073C080318013EBA078316E0
:100C500044088312A800BC012808BB00BB0DBC0DD2
:100C6000BB0DBC0DFC30BB053B08B9073C080318A5
:100C7000013EBA07831645088312A900BC01290862
:100C8000BB000330AD000310BB0DBC0DAD038A11DA
:100C90000A12031D432E3B08B9073C080318013E06
:100CA000BA07831646088312AA00BC012A08BB00B3
:100CB0000430AD000310BB0DBC0DAD038A110A1248
:100CC000031D5A2E3B08B9073C080318013EBA071A
:100CD000831647088312AB00BC012B08BB0005300C
:100CE000AD000310BB0DBC0DAD038A110A12031D2C
:100CF000712E3B08B9073C080318013EBA0783165A
:100D000048088312AC00BC012C08BB000630AD00C3
:100D10000310BB0DBC0DAD038A110A12031D882EF2
:100D200039083B078316C9002D30CA00C9088A114B
:100D30000A128312031D9F2E20308316CA008312CD
:100D40003F30831649028A110A128312031DAB2E0B
:100D500030308316CA0083120630831649028A1186
:100D60000A128312031DB72E31308316CA00831274
:100D70005B30831649028A110A128312031DC32EA7
:100D800032308316CA0083124F30831649028A110B
:100D90000A128312031DCF2E33308316CA0083122A
:100DA0006630831649028A110A128312031DDB2E54
:100DB00034308316CA0083126D30831649028A11BB
:100DC0000A128312031DE72E35308316CA008312E0
:100DD0007D30831649028A110A128312031DF32EF5
:100DE00036308316CA0083120730831649028A11EF
:100DF0000A128312031DFF2E37308316CA00831296
:100E00007F30831649028A110A128312031D0B2FA9
:100E100038308316CA0083126F30831649028A1154
:100E20000A128312031D172F39308316CA0083124A
:100E30007830831649028A110A128312031D232F68
:100E400055308316CA0083121C30831649028A115A
:100E50000A128312031D2F2F55308316CA008312E6
:100E60005430831649028A110A128312031D3B2F44
:100E70006E308316CA0083125830831649028A11D5
:100E80000A128312031D472F65308316CA0083128E
:100E9000080083160712831207120830AD008A116A
:100EA0000A12AD0B512F8316871183128711083058
:100EB000AD008A110A12AD0B5B2F78308316D50076
:100EC00083128A110A12B12780308316D50083124B
:100ED0008A110A12B12783165308D50083128A118A
:100EE0000A12B127831687118312871500000000AC
:100EF000831607128312071608008316071283123F
:100F000007120830AD008A110A12AD0B852F831627
:100F10008711831287110830AD008A110A12AD0BB8
:100F20008F2F78308316D50083128A110A12B127C9
:100F300040308316D50083128A110A12B127831616
:100F40005408D50083128A110A12B127831687111B
:100F500083128715000000008316071283120716FC
:100F6000080001308316D60083120930831656021A
:100F70008A110A1283120318E92F8A110A128316A2
:100F8000550D83120318CB2F8316071283120712F5
:100F90008A110A12CF2F8316071283120716031025
:100FA0008316D50D000000008711831287150730C6
:100FB000AD008A110A12AD0BDB2F83168711831245
:100FC000871101308316D6078A110A128312031C77
:100FD000B42F000000008316871183128715073095
:100FE000AD008A110A12AD0BF32F831687118312FD
:100FF000871108008A01FA2F8A01FC2F20002000A7
:101000002000200052004100430041004C0020001D
:10101000420043004300330039004200000020003A
:101020002800430029003200300031003500200044
:101030005400410037005700200042006100720058
:1010400069007300000020002000440049005300A4
:1010500050004C004100590020005400450053004E
:10106000540049004E004700000046007200650031
:101070006B0061006E00730020003A002000000049
:1010800050005700520020003A002000480049005C
:1010900047004800000050005700520020003A006E
:1010A00020004C004F005700200000004D004F0072
:1010B000440020003A002000550053004200200068
:1010C00000004D004F00440020003A0020004C007A
:1010D00053004200200000004B0061006E006100E0
:0A10E0006C0020003A002000000020
:02400E007A3DF9
:00000001FF
