:0200000057287F
:08000800FF0003088301FE0064
:100010000408FD007C288313B000B101B10D00304D
:1000200031027D3003193002031C1C28AF1B1C2831
:100030002330B0070318B10A00303102F030031941
:100040003002031C262883173030B00730088400A4
:100050000800AD01AC00FF30AC07031CAD07031C6A
:100060004B280330AB00DF3037202B28AB01E83EB4
:10007000AA00AB09FC30031C4028AA0703183D283E
:10008000AA070000AB0F3D282A184628AA1C4A28B8
:1000900000004A2808008313831203130800AE00EF
:1000A0002108AF0022070B202E0880004B28830177
:1000B00007309F00FF3083168600850101178312E9
:1000C000BB018316C9018312513083164902831282
:1000D00003187828831649088312A2004C30A10027
:1000E00008304F2001308316C9078312031C632890
:1000F000B701B601B801C628DF3084008313210898
:100100008000840A22088000840A2E088000840A65
:100110002F088000840A30088000840A310880009B
:100120008B138B1CA928861CA02805143808A20054
:100130004C30A1000030861901304F20B80AA828A1
:1001400029303802031CA528B801B60A0319B70ADA
:100150008B108B17DF30840083130008A100840A02
:100160000008A200840A0008AE00840A0008AF005C
:10017000840A0008B000840A0008B1007D088400E9
:100180007E088300FF0E7F0E090008000B168B17F8
:100190008316D20183122A308316DB0083123625A0
:1001A0000130292071308316DB008312362501309F
:1001B00029205C308316DB0083123625013029208C
:1001C00028308316DB0083123625013029200830C1
:1001D0008316DB0083123625013029202A3083164E
:1001E000DB00831236250130292079308316DB00AD
:1001F0008312362501302920D5308316DB00831287
:1002000036250130292070308316DB008312362515
:100210000130292078308316DB0083123625013027
:10022000292008308316DB0083123625013029206F
:1002300006308316DB0083123625013029202A3050
:100240008316DB008312362501302920793083168E
:10025000DB00831236250130292072308316DB0043
:1002600083123625013029208316DB0183123625BF
:1002700001302920DA308316DB0083123625013065
:10028000292010308316DB00831236250130292007
:1002900081308316DB008312362501302920FF30A0
:1002A0008316DB008312362501302920DB308316CC
:1002B000DB00831236250130292030308316DB0025
:1002C0008312362501302920DC308316DB008312AF
:1002D00036250130292003308316DB0083123625B2
:1002E0000130292078308316DB0083123625013057
:1002F000292028308316DB0083123625013029207F
:100300002A308316DB00831236250130292006307F
:100310008316DB008312362501302920083083162E
:10032000DB00831236250130292028308316DB00BC
:10033000831236250130292001308316DB00831219
:1003400036250130292080308316DB0083123625C4
:100350000A3029200C308316DB00831236256430E6
:10036000292080308316DB00831236252030BC0024
:100370005230BD004130BE004330BF004130C000AC
:100380004C30C1002030C2004230C3004330C400B2
:10039000C5003330C6003930C7004230C8002030B5
:1003A000C900CA00CB00C925C0308316DB00831208
:1003B00036252030BC005430BD004130BE003730FF
:1003C000BF005730C0002030C1004230C200613051
:1003D000C3007230C4006930C5007330C6002D30D0
:1003E000C7003230C8003030C9003130CA00353063
:1003F000CB00C9250330AD00E8302A200430850643
:100400008316051183126F08A30023088316CA0000
:1004100083126B08A30023088316CB0083124D08B8
:10042000A30023088316CC0083124F08A3002308DF
:100430008316CD0083127008A30023088316CE0014
:1004400083124E08A30023088316CF0030088312BE
:10045000A30023088316D000831227248316520892
:10046000D40083125008A30023088316CA00831205
:100470007208A30023088316CB0083126108A3002F
:1004800023088316CC0026088312A30023088316B2
:10049000CD0027088312A30023088316CE00831201
:1004A0007108A30023088316CF0083126208A300FB
:1004B00023088316D0008312272483165208D50000
:1004C00083125108A30023088316CA008312680808
:1004D000A30023088316CB0083126908A300230816
:1004E0008316CC002E088312A30023088316CD00A8
:1004F0002F088312A30023088316CE0083126A08F4
:10050000A30023088316CF002D088312A30023081D
:100510008316D0008312272483165208D600831234
:100520005208A30023088316CA0083127408A3008C
:1005300023088316CB0083126608A30023088316C2
:10054000CC002B088312A30023088316CD002C08AF
:100550008312A30023088316CE0083127308A3001E
:1005600023088316CF0083126708A300230883168D
:10057000D0008312272483165208D7008312530811
:10058000A30023088316CA0083126308A30023086C
:100590008316CB0083126408A30023088316CC00C3
:1005A00029088312A30023088316CD002A0883128A
:1005B000A30023088316CE0083126508A300230836
:1005C0008316CF0028088312A30023088316D000C7
:1005D0008312272483165208D80083125408A300DC
:1005E00023088316CA0083127608A3002308831603
:1005F000CB0083125F08A30023088316CC002408D5
:100600008312A30023088316CD0025088312A300BC
:1006100023088316CE0083127508A30023088316CF
:10062000CF0083126008A30023088316D000831232
:10063000272483165208D90083125B08A3002308DD
:100640008316CA0020088312A30023088316CB0058
:1006500021088312A30023088316CC008312770895
:10066000A30023088316CD0083127C08A30023086F
:100670008316CE0083125A08A30023088316CF00E6
:1006800083125C08A30023088316D000831227245A
:1006900083165208DA008030DB00831236252030C2
:1006A00083165A02831203195E2B4330BC00483074
:1006B000BD0083165A088312BE00622B2030BC0096
:1006C000BD00BE002030BF007B08A3000130230224
:1006D000031D6F2B5430C0005830C100722B2030E6
:1006E000C000C1002030C2005608A3000130230220
:1006F000031D7D2B4830C3007F2B4C30C3002030BE
:10070000C400831654088312A3002308C50083166F
:1007100055088312A3002308C6002E30C700831695
:1007200056088312A3002308C800831657088312B3
:10073000A3002308C900831658088312A3002308C6
:10074000CA00831659088312A3002308CB00C925C9
:1007500001302920C0308316DB0083123625831632
:1007600023088312A30001302302031DBA2B3E305D
:10077000BC00BC2B2030BC00831622088312A300CF
:1007800001302302031DC72B3E30BD00C92B203092
:10079000BD005D08A30001302302031DD22B3E30B3
:1007A000BE00D42B2030BE005E08A300013023021F
:1007B000031DDD2B3E30BF00DF2B2030BF0020307B
:1007C000BD00BE00BF005908A30001302302031D75
:1007D000EE2B5230C0005830C100F12B2030C00049
:1007E000C1002030C200C300C4005708A30001307C
:1007F0002302031D002C3C30C5003E30C600032CF4
:100800002030C500C6002030C7007908A3000130A1
:100810002302031D0E2C6E30C800102C2030C8009F
:100820005808A30001302302031D1D2C5530C900B8
:100830005330CA004230CB00232C4C30C900533017
:10084000CA004230CB00C92501302920FE29831679
:100850004A088312A300B3012308B20083164B0891
:100860008312A400B5012408B4000310B40DB50D23
:100870003408B20735080318013EB30783164C0845
:100880008312A500B5012508B400B40DB50DB40D53
:10089000B50DFC30B4053408B20735080318013E25
:1008A000B30783164D088312A600B5012608B400CD
:1008B0000330AA000310B40DB50DAA0B5A2C34084E
:1008C000B20735080318013EB30783164E0883129A
:1008D000A700B5012708B4000430AA000310B40D26
:1008E000B50DAA0B6E2C3408B20735080318013E6B
:1008F000B30783164F088312A800B5012808B40077
:100900000530AA000310B40DB50DAA0B822C3408D3
:10091000B20735080318013EB30783165008831247
:10092000A900B5012908B4000630AA000310B40DCF
:10093000B50DAA0B962C320834078316D1002D3042
:10094000D200D1088312031DA82C20308316D200B8
:1009500083123F30831651028312031DB22C3030B4
:100960008316D20083120630831651028312031DB0
:10097000BC2C31308316D20083125B3083165102B7
:100980008312031DC62C32308316D20083124F30DF
:10099000831651028312031DD02C33308316D200EC
:1009A00083126630831651028312031DDA2C343011
:1009B0008316D20083126D30831651028312031DF9
:1009C000E42C35308316D20083127D308316510219
:1009D0008312031DEE2C36308316D20083120730AB
:1009E000831651028312031DF82C37308316D20070
:1009F00083127F30831651028312031D022D38307B
:100A00008316D20083126F30831651028312031DA6
:100A10000C2D39308316D2008312783083165102A0
:100A20008312031D162D74308316D20083121C30DE
:100A3000831651028312031D202D55308316D200D8
:100A400083125430831651028312031D2A2D6E30F7
:100A50008316D20083125830831651028312031D6D
:100A6000342D65308316D2008312080083160512D8
:100A7000831205120330AA00AA0B3C2D0000831636
:100A80008511831285110330AA00AA0B452D0000A1
:100A900078308316DD0083128C2580308316DD00CC
:100AA00083128C2583165B08DD0083128C25831648
:100AB0008511831285150000831605128312051611
:100AC000080083160512831205120330AA00AA0B30
:100AD000672D000083168511831285110330AA004B
:100AE000AA0B702D000078308316DD0083128C2550
:100AF00040308316DD0083128C2583165C08DD00F0
:100B000083128C25831685118312851500008316A8
:100B1000051283120516080001308316DE008312C9
:100B2000093083165E0283120318BA2D83165D0DF9
:100B300083120318A02D8316051283120512A42D0B
:100B4000831605128312051603108316DD0D0000AF
:100B50008511831285150230AA00AA0BAD2DB02D88
:100B6000831685118312851101308316DE078312E7
:100B7000031C8F2D0000831685118312851502300A
:100B8000AA00AA0BC12DC42D8316851183128511CD
:100B900008008316C901831210308316490283129C
:100BA0000318E52D831649083C3E84000008DC004C
:100BB000831261250330AA00AA0BDC2D000001304E
:100BC0008316C9078312031CCB2D0800E62DE72DE1
:02400E00103F61
:00000001FF
